{
  "_format": "hh-sol-artifact-1",
  "contractName": "RaptorsNft",
  "sourceName": "contracts/RaptorsNft.sol",
  "abi": [
    {
      "inputs": [],
      "stateMutability": "nonpayable",
      "type": "constructor"
    },
    {
      "anonymous": false,
      "inputs": [
        {
          "indexed": true,
          "internalType": "address",
          "name": "owner",
          "type": "address"
        },
        {
          "indexed": true,
          "internalType": "address",
          "name": "approved",
          "type": "address"
        },
        {
          "indexed": true,
          "internalType": "uint256",
          "name": "tokenId",
          "type": "uint256"
        }
      ],
      "name": "Approval",
      "type": "event"
    },
    {
      "anonymous": false,
      "inputs": [
        {
          "indexed": true,
          "internalType": "address",
          "name": "owner",
          "type": "address"
        },
        {
          "indexed": true,
          "internalType": "address",
          "name": "operator",
          "type": "address"
        },
        {
          "indexed": false,
          "internalType": "bool",
          "name": "approved",
          "type": "bool"
        }
      ],
      "name": "ApprovalForAll",
      "type": "event"
    },
    {
      "anonymous": false,
      "inputs": [
        {
          "indexed": false,
          "internalType": "uint256",
          "name": "id",
          "type": "uint256"
        },
        {
          "indexed": true,
          "internalType": "address",
          "name": "buyer",
          "type": "address"
        },
        {
          "indexed": false,
          "internalType": "uint256",
          "name": "mintPrice",
          "type": "uint256"
        },
        {
          "indexed": true,
          "internalType": "string",
          "name": "tokenURI",
          "type": "string"
        },
        {
          "indexed": false,
          "internalType": "uint256",
          "name": "timestamp",
          "type": "uint256"
        }
      ],
      "name": "MintedNFT",
      "type": "event"
    },
    {
      "anonymous": false,
      "inputs": [
        {
          "indexed": true,
          "internalType": "address",
          "name": "previousOwner",
          "type": "address"
        },
        {
          "indexed": true,
          "internalType": "address",
          "name": "newOwner",
          "type": "address"
        }
      ],
      "name": "OwnershipTransferred",
      "type": "event"
    },
    {
      "anonymous": false,
      "inputs": [
        {
          "indexed": false,
          "internalType": "address",
          "name": "account",
          "type": "address"
        }
      ],
      "name": "Paused",
      "type": "event"
    },
    {
      "anonymous": false,
      "inputs": [
        {
          "indexed": true,
          "internalType": "address",
          "name": "from",
          "type": "address"
        },
        {
          "indexed": true,
          "internalType": "address",
          "name": "to",
          "type": "address"
        },
        {
          "indexed": true,
          "internalType": "uint256",
          "name": "tokenId",
          "type": "uint256"
        }
      ],
      "name": "Transfer",
      "type": "event"
    },
    {
      "anonymous": false,
      "inputs": [
        {
          "indexed": false,
          "internalType": "address",
          "name": "account",
          "type": "address"
        }
      ],
      "name": "Unpaused",
      "type": "event"
    },
    {
      "inputs": [
        {
          "internalType": "address",
          "name": "to",
          "type": "address"
        },
        {
          "internalType": "uint256",
          "name": "tokenId",
          "type": "uint256"
        }
      ],
      "name": "approve",
      "outputs": [],
      "stateMutability": "nonpayable",
      "type": "function"
    },
    {
      "inputs": [
        {
          "internalType": "address",
          "name": "owner",
          "type": "address"
        }
      ],
      "name": "balanceOf",
      "outputs": [
        {
          "internalType": "uint256",
          "name": "",
          "type": "uint256"
        }
      ],
      "stateMutability": "view",
      "type": "function"
    },
    {
      "inputs": [
        {
          "internalType": "uint256",
          "name": "tokenId",
          "type": "uint256"
        }
      ],
      "name": "getApproved",
      "outputs": [
        {
          "internalType": "address",
          "name": "",
          "type": "address"
        }
      ],
      "stateMutability": "view",
      "type": "function"
    },
    {
      "inputs": [
        {
          "internalType": "uint256",
          "name": "tokenId_",
          "type": "uint256"
        }
      ],
      "name": "getMintedNFT",
      "outputs": [
        {
          "components": [
            {
              "internalType": "uint256",
              "name": "id",
              "type": "uint256"
            },
            {
              "internalType": "address",
              "name": "buyer",
              "type": "address"
            },
            {
              "internalType": "uint256",
              "name": "mintPrice",
              "type": "uint256"
            },
            {
              "internalType": "string",
              "name": "imageURL",
              "type": "string"
            },
            {
              "internalType": "uint256",
              "name": "timestamp",
              "type": "uint256"
            }
          ],
          "internalType": "struct RaptorsNft.Sale",
          "name": "",
          "type": "tuple"
        }
      ],
      "stateMutability": "view",
      "type": "function"
    },
    {
      "inputs": [
        {
          "internalType": "address",
          "name": "owner",
          "type": "address"
        },
        {
          "internalType": "address",
          "name": "operator",
          "type": "address"
        }
      ],
      "name": "isApprovedForAll",
      "outputs": [
        {
          "internalType": "bool",
          "name": "",
          "type": "bool"
        }
      ],
      "stateMutability": "view",
      "type": "function"
    },
    {
      "inputs": [],
      "name": "isPublicMintEnabled",
      "outputs": [
        {
          "internalType": "bool",
          "name": "",
          "type": "bool"
        }
      ],
      "stateMutability": "view",
      "type": "function"
    },
    {
      "inputs": [],
      "name": "listMintedNFTs",
      "outputs": [
        {
          "components": [
            {
              "internalType": "uint256",
              "name": "id",
              "type": "uint256"
            },
            {
              "internalType": "address",
              "name": "buyer",
              "type": "address"
            },
            {
              "internalType": "uint256",
              "name": "mintPrice",
              "type": "uint256"
            },
            {
              "internalType": "string",
              "name": "imageURL",
              "type": "string"
            },
            {
              "internalType": "uint256",
              "name": "timestamp",
              "type": "uint256"
            }
          ],
          "internalType": "struct RaptorsNft.Sale[]",
          "name": "",
          "type": "tuple[]"
        }
      ],
      "stateMutability": "view",
      "type": "function"
    },
    {
      "inputs": [],
      "name": "maxPerWallet",
      "outputs": [
        {
          "internalType": "uint256",
          "name": "",
          "type": "uint256"
        }
      ],
      "stateMutability": "view",
      "type": "function"
    },
    {
      "inputs": [],
      "name": "maxSupply",
      "outputs": [
        {
          "internalType": "uint256",
          "name": "",
          "type": "uint256"
        }
      ],
      "stateMutability": "view",
      "type": "function"
    },
    {
      "inputs": [],
      "name": "mintPrice",
      "outputs": [
        {
          "internalType": "uint256",
          "name": "",
          "type": "uint256"
        }
      ],
      "stateMutability": "view",
      "type": "function"
    },
    {
      "inputs": [],
      "name": "mintRaptorNft",
      "outputs": [],
      "stateMutability": "payable",
      "type": "function"
    },
    {
      "inputs": [],
      "name": "name",
      "outputs": [
        {
          "internalType": "string",
          "name": "",
          "type": "string"
        }
      ],
      "stateMutability": "view",
      "type": "function"
    },
    {
      "inputs": [],
      "name": "owner",
      "outputs": [
        {
          "internalType": "address",
          "name": "",
          "type": "address"
        }
      ],
      "stateMutability": "view",
      "type": "function"
    },
    {
      "inputs": [
        {
          "internalType": "uint256",
          "name": "tokenId",
          "type": "uint256"
        }
      ],
      "name": "ownerOf",
      "outputs": [
        {
          "internalType": "address",
          "name": "",
          "type": "address"
        }
      ],
      "stateMutability": "view",
      "type": "function"
    },
    {
      "inputs": [],
      "name": "pause",
      "outputs": [],
      "stateMutability": "nonpayable",
      "type": "function"
    },
    {
      "inputs": [],
      "name": "paused",
      "outputs": [
        {
          "internalType": "bool",
          "name": "",
          "type": "bool"
        }
      ],
      "stateMutability": "view",
      "type": "function"
    },
    {
      "inputs": [],
      "name": "renounceOwnership",
      "outputs": [],
      "stateMutability": "nonpayable",
      "type": "function"
    },
    {
      "inputs": [
        {
          "internalType": "address",
          "name": "from",
          "type": "address"
        },
        {
          "internalType": "address",
          "name": "to",
          "type": "address"
        },
        {
          "internalType": "uint256",
          "name": "tokenId",
          "type": "uint256"
        }
      ],
      "name": "safeTransferFrom",
      "outputs": [],
      "stateMutability": "nonpayable",
      "type": "function"
    },
    {
      "inputs": [
        {
          "internalType": "address",
          "name": "from",
          "type": "address"
        },
        {
          "internalType": "address",
          "name": "to",
          "type": "address"
        },
        {
          "internalType": "uint256",
          "name": "tokenId",
          "type": "uint256"
        },
        {
          "internalType": "bytes",
          "name": "data",
          "type": "bytes"
        }
      ],
      "name": "safeTransferFrom",
      "outputs": [],
      "stateMutability": "nonpayable",
      "type": "function"
    },
    {
      "inputs": [
        {
          "internalType": "address",
          "name": "operator",
          "type": "address"
        },
        {
          "internalType": "bool",
          "name": "approved",
          "type": "bool"
        }
      ],
      "name": "setApprovalForAll",
      "outputs": [],
      "stateMutability": "nonpayable",
      "type": "function"
    },
    {
      "inputs": [
        {
          "internalType": "bool",
          "name": "isPublicMintEnabled_",
          "type": "bool"
        }
      ],
      "name": "setIsPublicMintEnabled",
      "outputs": [],
      "stateMutability": "nonpayable",
      "type": "function"
    },
    {
      "inputs": [
        {
          "internalType": "bytes4",
          "name": "interfaceId",
          "type": "bytes4"
        }
      ],
      "name": "supportsInterface",
      "outputs": [
        {
          "internalType": "bool",
          "name": "",
          "type": "bool"
        }
      ],
      "stateMutability": "view",
      "type": "function"
    },
    {
      "inputs": [],
      "name": "symbol",
      "outputs": [
        {
          "internalType": "string",
          "name": "",
          "type": "string"
        }
      ],
      "stateMutability": "view",
      "type": "function"
    },
    {
      "inputs": [
        {
          "internalType": "uint256",
          "name": "index",
          "type": "uint256"
        }
      ],
      "name": "tokenByIndex",
      "outputs": [
        {
          "internalType": "uint256",
          "name": "",
          "type": "uint256"
        }
      ],
      "stateMutability": "view",
      "type": "function"
    },
    {
      "inputs": [
        {
          "internalType": "address",
          "name": "owner",
          "type": "address"
        },
        {
          "internalType": "uint256",
          "name": "index",
          "type": "uint256"
        }
      ],
      "name": "tokenOfOwnerByIndex",
      "outputs": [
        {
          "internalType": "uint256",
          "name": "",
          "type": "uint256"
        }
      ],
      "stateMutability": "view",
      "type": "function"
    },
    {
      "inputs": [
        {
          "internalType": "uint256",
          "name": "tokenId_",
          "type": "uint256"
        }
      ],
      "name": "tokenURI",
      "outputs": [
        {
          "internalType": "string",
          "name": "",
          "type": "string"
        }
      ],
      "stateMutability": "view",
      "type": "function"
    },
    {
      "inputs": [],
      "name": "totalSupply",
      "outputs": [
        {
          "internalType": "uint256",
          "name": "",
          "type": "uint256"
        }
      ],
      "stateMutability": "view",
      "type": "function"
    },
    {
      "inputs": [
        {
          "internalType": "address",
          "name": "from",
          "type": "address"
        },
        {
          "internalType": "address",
          "name": "to",
          "type": "address"
        },
        {
          "internalType": "uint256",
          "name": "tokenId",
          "type": "uint256"
        }
      ],
      "name": "transferFrom",
      "outputs": [],
      "stateMutability": "nonpayable",
      "type": "function"
    },
    {
      "inputs": [
        {
          "internalType": "address",
          "name": "newOwner",
          "type": "address"
        }
      ],
      "name": "transferOwnership",
      "outputs": [],
      "stateMutability": "nonpayable",
      "type": "function"
    },
    {
      "inputs": [],
      "name": "unpause",
      "outputs": [],
      "stateMutability": "nonpayable",
      "type": "function"
    },
    {
      "inputs": [
        {
          "internalType": "address",
          "name": "",
          "type": "address"
        }
      ],
      "name": "walletMints",
      "outputs": [
        {
          "internalType": "uint256",
          "name": "",
          "type": "uint256"
        }
      ],
      "stateMutability": "view",
      "type": "function"
    },
    {
      "inputs": [],
      "name": "withdraw",
      "outputs": [],
      "stateMutability": "nonpayable",
      "type": "function"
    },
    {
      "inputs": [],
      "name": "withdrawWalletAddress",
      "outputs": [
        {
          "internalType": "address",
          "name": "",
          "type": "address"
        }
      ],
      "stateMutability": "view",
      "type": "function"
    }
  ],
  "bytecode": "0x60806040523480156200001157600080fd5b506040518060400160405280600a81526020017f526170746f72734e6674000000000000000000000000000000000000000000008152506040518060400160405280600481526020017f524e46540000000000000000000000000000000000000000000000000000000081525081600090816200008f919062001553565b508060019081620000a1919062001553565b5050506000600a60006101000a81548160ff021916908315150217905550620000df620000d36200017860201b60201c565b6200018060201b60201c565b662386f26fc10000600d819055506041600c819055506003600e8190555033600f60016101000a81548173ffffffffffffffffffffffffffffffffffffffff021916908373ffffffffffffffffffffffffffffffffffffffff16021790555060005b600581101562000171576200015b6200024660201b60201c565b8080620001689062001669565b91505062000141565b5062001ebf565b600033905090565b6000600a60019054906101000a900473ffffffffffffffffffffffffffffffffffffffff16905081600a60016101000a81548173ffffffffffffffffffffffffffffffffffffffff021916908373ffffffffffffffffffffffffffffffffffffffff1602179055508173ffffffffffffffffffffffffffffffffffffffff168173ffffffffffffffffffffffffffffffffffffffff167f8be0079c531659141344cd1fd0a4f28419497f9722a3daafe3b4186f6b6457e060405160405180910390a35050565b60006200025f600b6200044b60201b6200158b1760201c565b905062000278600b6200045960201b620015991760201c565b6200028a33826200046f60201b60201c565b6000604051806080016040528060438152602001620068ae60439139905060116040518060a001604052808481526020013373ffffffffffffffffffffffffffffffffffffffff168152602001600d54815260200183620002f6866200049560201b620015af1760201c565b6040516020016200030992919062001774565b60405160208183030381529060405281526020014281525090806001815401808255809150506001900390600052602060002090600502016000909190919091506000820151816000015560208201518160010160006101000a81548173ffffffffffffffffffffffffffffffffffffffff021916908373ffffffffffffffffffffffffffffffffffffffff160217905550604082015181600201556060820151816003019081620003bc919062001553565b50608082015181600401555050620003da826200057960201b60201c565b604051620003e99190620017a9565b60405180910390203373ffffffffffffffffffffffffffffffffffffffff167f5541a5569f98981b61e7ec19b78cd051b4a1755a66a9729e08c22f177ac9eb0184600d54426040516200043f93929190620017d3565b60405180910390a35050565b600081600001549050919050565b6001816000016000828254019250508190555050565b620004918282604051806020016040528060008152506200062360201b60201c565b5050565b606060006001620004b1846200069160201b6200167d1760201c565b01905060008167ffffffffffffffff811115620004d357620004d2620012e4565b5b6040519080825280601f01601f191660200182016040528015620005065781602001600182028036833780820191505090505b509050600082602001820190505b6001156200056e578080600190039150507f3031323334353637383961626364656600000000000000000000000000000000600a86061a8153600a858162000561576200056062001810565b5b0494506000850362000514575b819350505050919050565b60606200058c82620007fd60201b60201c565b620005ce576040517f08c379a0000000000000000000000000000000000000000000000000000000008152600401620005c590620018c6565b60405180910390fd5b6000620005e06200084660201b60201c565b905080620005f9846200049560201b620015af1760201c565b6040516020016200060c92919062001938565b604051602081830303815290604052915050919050565b6200063583836200086760201b60201c565b6200064a600084848462000aad60201b60201c565b6200068c576040517f08c379a00000000000000000000000000000000000000000000000000000000081526004016200068390620019e3565b60405180910390fd5b505050565b600080600090507a184f03e93ff9f4daa797ed6e38ed64bf6a1f0100000000000000008310620006f3577a184f03e93ff9f4daa797ed6e38ed64bf6a1f0100000000000000008381620006e957620006e862001810565b5b0492506040810190505b6d04ee2d6d415b85acef8100000000831062000734576d04ee2d6d415b85acef810000000083816200072a576200072962001810565b5b0492506020810190505b662386f26fc1000083106200076757662386f26fc1000083816200075d576200075c62001810565b5b0492506010810190505b6305f5e100831062000794576305f5e10083816200078a576200078962001810565b5b0492506008810190505b6127108310620007bd576127108381620007b357620007b262001810565b5b0492506004810190505b60648310620007e45760648381620007da57620007d962001810565b5b0492506002810190505b600a8310620007f4576001810190505b80915050919050565b60008073ffffffffffffffffffffffffffffffffffffffff16620008278362000c5660201b60201c565b73ffffffffffffffffffffffffffffffffffffffff1614159050919050565b6060604051806080016040528060438152602001620068f160439139905090565b600073ffffffffffffffffffffffffffffffffffffffff168273ffffffffffffffffffffffffffffffffffffffff1603620008d9576040517f08c379a0000000000000000000000000000000000000000000000000000000008152600401620008d09062001a55565b60405180910390fd5b620008ea81620007fd60201b60201c565b156200092d576040517f08c379a0000000000000000000000000000000000000000000000000000000008152600401620009249062001ac7565b60405180910390fd5b6200094360008383600162000c9360201b60201c565b6200095481620007fd60201b60201c565b1562000997576040517f08c379a00000000000000000000000000000000000000000000000000000000081526004016200098e9062001ac7565b60405180910390fd5b6001600360008473ffffffffffffffffffffffffffffffffffffffff1673ffffffffffffffffffffffffffffffffffffffff16815260200190815260200160002060008282540192505081905550816002600083815260200190815260200160002060006101000a81548173ffffffffffffffffffffffffffffffffffffffff021916908373ffffffffffffffffffffffffffffffffffffffff160217905550808273ffffffffffffffffffffffffffffffffffffffff16600073ffffffffffffffffffffffffffffffffffffffff167fddf252ad1be2c89b69c2b068fc378daa952ba7f163c4a11628f55a4df523b3ef60405160405180910390a462000aa960008383600162000cc260201b60201c565b5050565b600062000adb8473ffffffffffffffffffffffffffffffffffffffff1662000cc860201b620017d01760201c565b1562000c49578373ffffffffffffffffffffffffffffffffffffffff1663150b7a0262000b0d6200017860201b60201c565b8786866040518563ffffffff1660e01b815260040162000b31949392919062001b9c565b6020604051808303816000875af192505050801562000b7057506040513d601f19601f8201168201806040525081019062000b6d919062001c52565b60015b62000bf8573d806000811462000ba3576040519150601f19603f3d011682016040523d82523d6000602084013e62000ba8565b606091505b50600081510362000bf0576040517f08c379a000000000000000000000000000000000000000000000000000000000815260040162000be790620019e3565b60405180910390fd5b805181602001fd5b63150b7a0260e01b7bffffffffffffffffffffffffffffffffffffffffffffffffffffffff1916817bffffffffffffffffffffffffffffffffffffffffffffffffffffffff19161491505062000c4e565b600190505b949350505050565b60006002600083815260200190815260200160002060009054906101000a900473ffffffffffffffffffffffffffffffffffffffff169050919050565b62000ca362000ceb60201b60201c565b62000cbc8484848462000d4060201b620017f31760201c565b50505050565b50505050565b6000808273ffffffffffffffffffffffffffffffffffffffff163b119050919050565b62000cfb62000ed460201b60201c565b1562000d3e576040517f08c379a000000000000000000000000000000000000000000000000000000000815260040162000d359062001cd4565b60405180910390fd5b565b62000d598484848462000eeb60201b620019511760201c565b600181111562000da0576040517f08c379a000000000000000000000000000000000000000000000000000000000815260040162000d979062001d6c565b60405180910390fd5b6000829050600073ffffffffffffffffffffffffffffffffffffffff168573ffffffffffffffffffffffffffffffffffffffff160362000df15762000deb8162000ef160201b60201c565b62000e39565b8373ffffffffffffffffffffffffffffffffffffffff168573ffffffffffffffffffffffffffffffffffffffff161462000e385762000e37858262000f3a60201b60201c565b5b5b600073ffffffffffffffffffffffffffffffffffffffff168473ffffffffffffffffffffffffffffffffffffffff160362000e855762000e7f81620010b760201b60201c565b62000ecd565b8473ffffffffffffffffffffffffffffffffffffffff168473ffffffffffffffffffffffffffffffffffffffff161462000ecc5762000ecb84826200119360201b60201c565b5b5b5050505050565b6000600a60009054906101000a900460ff16905090565b50505050565b6008805490506009600083815260200190815260200160002081905550600881908060018154018082558091505060019003906000526020600020016000909190919091505550565b6000600162000f54846200121f60201b62000e881760201c565b62000f60919062001d8e565b905060006007600084815260200190815260200160002054905081811462001046576000600660008673ffffffffffffffffffffffffffffffffffffffff1673ffffffffffffffffffffffffffffffffffffffff168152602001908152602001600020600084815260200190815260200160002054905080600660008773ffffffffffffffffffffffffffffffffffffffff1673ffffffffffffffffffffffffffffffffffffffff168152602001908152602001600020600084815260200190815260200160002081905550816007600083815260200190815260200160002081905550505b6007600084815260200190815260200160002060009055600660008573ffffffffffffffffffffffffffffffffffffffff1673ffffffffffffffffffffffffffffffffffffffff16815260200190815260200160002060008381526020019081526020016000206000905550505050565b60006001600880549050620010cd919062001d8e565b90506000600960008481526020019081526020016000205490506000600883815481106200110057620010ff62001dc9565b5b90600052602060002001549050806008838154811062001125576200112462001dc9565b5b90600052602060002001819055508160096000838152602001908152602001600020819055506009600085815260200190815260200160002060009055600880548062001177576200117662001df8565b5b6001900381819060005260206000200160009055905550505050565b6000620011ab836200121f60201b62000e881760201c565b905081600660008573ffffffffffffffffffffffffffffffffffffffff1673ffffffffffffffffffffffffffffffffffffffff168152602001908152602001600020600083815260200190815260200160002081905550806007600084815260200190815260200160002081905550505050565b60008073ffffffffffffffffffffffffffffffffffffffff168273ffffffffffffffffffffffffffffffffffffffff160362001292576040517f08c379a0000000000000000000000000000000000000000000000000000000008152600401620012899062001e9d565b60405180910390fd5b600360008373ffffffffffffffffffffffffffffffffffffffff1673ffffffffffffffffffffffffffffffffffffffff168152602001908152602001600020549050919050565b600081519050919050565b7f4e487b7100000000000000000000000000000000000000000000000000000000600052604160045260246000fd5b7f4e487b7100000000000000000000000000000000000000000000000000000000600052602260045260246000fd5b600060028204905060018216806200135b57607f821691505b60208210810362001371576200137062001313565b5b50919050565b60008190508160005260206000209050919050565b60006020601f8301049050919050565b600082821b905092915050565b600060088302620013db7fffffffffffffffffffffffffffffffffffffffffffffffffffffffffffffffff826200139c565b620013e786836200139c565b95508019841693508086168417925050509392505050565b6000819050919050565b6000819050919050565b6000620014346200142e6200142884620013ff565b62001409565b620013ff565b9050919050565b6000819050919050565b620014508362001413565b620014686200145f826200143b565b848454620013a9565b825550505050565b600090565b6200147f62001470565b6200148c81848462001445565b505050565b5b81811015620014b457620014a860008262001475565b60018101905062001492565b5050565b601f8211156200150357620014cd8162001377565b620014d8846200138c565b81016020851015620014e8578190505b62001500620014f7856200138c565b83018262001491565b50505b505050565b600082821c905092915050565b6000620015286000198460080262001508565b1980831691505092915050565b600062001543838362001515565b9150826002028217905092915050565b6200155e82620012d9565b67ffffffffffffffff8111156200157a5762001579620012e4565b5b62001586825462001342565b62001593828285620014b8565b600060209050601f831160018114620015cb5760008415620015b6578287015190505b620015c2858262001535565b86555062001632565b601f198416620015db8662001377565b60005b828110156200160557848901518255600182019150602085019450602081019050620015de565b8683101562001625578489015162001621601f89168262001515565b8355505b6001600288020188555050505b505050505050565b7f4e487b7100000000000000000000000000000000000000000000000000000000600052601160045260246000fd5b60006200167682620013ff565b91507fffffffffffffffffffffffffffffffffffffffffffffffffffffffffffffffff8203620016ab57620016aa6200163a565b5b600182019050919050565b600081905092915050565b60005b83811015620016e1578082015181840152602081019050620016c4565b60008484015250505050565b6000620016fa82620012d9565b620017068185620016b6565b935062001718818560208601620016c1565b80840191505092915050565b7f2e706e6700000000000000000000000000000000000000000000000000000000600082015250565b60006200175c600483620016b6565b9150620017698262001724565b600482019050919050565b6000620017828285620016ed565b9150620017908284620016ed565b91506200179d826200174d565b91508190509392505050565b6000620017b78284620016ed565b915081905092915050565b620017cd81620013ff565b82525050565b6000606082019050620017ea6000830186620017c2565b620017f96020830185620017c2565b620018086040830184620017c2565b949350505050565b7f4e487b7100000000000000000000000000000000000000000000000000000000600052601260045260246000fd5b600082825260208201905092915050565b7f4d657461646174613a2055524920717565727920666f72204e6f6e657869737460008201527f656e7420746f6b656e0000000000000000000000000000000000000000000000602082015250565b6000620018ae6029836200183f565b9150620018bb8262001850565b604082019050919050565b60006020820190508181036000830152620018e1816200189f565b9050919050565b7f2e6a736f6e000000000000000000000000000000000000000000000000000000600082015250565b600062001920600583620016b6565b91506200192d82620018e8565b600582019050919050565b6000620019468285620016ed565b9150620019548284620016ed565b9150620019618262001911565b91508190509392505050565b7f4552433732313a207472616e7366657220746f206e6f6e20455243373231526560008201527f63656976657220696d706c656d656e7465720000000000000000000000000000602082015250565b6000620019cb6032836200183f565b9150620019d8826200196d565b604082019050919050565b60006020820190508181036000830152620019fe81620019bc565b9050919050565b7f4552433732313a206d696e7420746f20746865207a65726f2061646472657373600082015250565b600062001a3d6020836200183f565b915062001a4a8262001a05565b602082019050919050565b6000602082019050818103600083015262001a708162001a2e565b9050919050565b7f4552433732313a20746f6b656e20616c7265616479206d696e74656400000000600082015250565b600062001aaf601c836200183f565b915062001abc8262001a77565b602082019050919050565b6000602082019050818103600083015262001ae28162001aa0565b9050919050565b600073ffffffffffffffffffffffffffffffffffffffff82169050919050565b600062001b168262001ae9565b9050919050565b62001b288162001b09565b82525050565b600081519050919050565b600082825260208201905092915050565b6000601f19601f8301169050919050565b600062001b688262001b2e565b62001b74818562001b39565b935062001b86818560208601620016c1565b62001b918162001b4a565b840191505092915050565b600060808201905062001bb3600083018762001b1d565b62001bc2602083018662001b1d565b62001bd16040830185620017c2565b818103606083015262001be5818462001b5b565b905095945050505050565b600080fd5b60007fffffffff0000000000000000000000000000000000000000000000000000000082169050919050565b62001c2c8162001bf5565b811462001c3857600080fd5b50565b60008151905062001c4c8162001c21565b92915050565b60006020828403121562001c6b5762001c6a62001bf0565b5b600062001c7b8482850162001c3b565b91505092915050565b7f5061757361626c653a2070617573656400000000000000000000000000000000600082015250565b600062001cbc6010836200183f565b915062001cc98262001c84565b602082019050919050565b6000602082019050818103600083015262001cef8162001cad565b9050919050565b7f455243373231456e756d657261626c653a20636f6e736563757469766520747260008201527f616e7366657273206e6f7420737570706f727465640000000000000000000000602082015250565b600062001d546035836200183f565b915062001d618262001cf6565b604082019050919050565b6000602082019050818103600083015262001d878162001d45565b9050919050565b600062001d9b82620013ff565b915062001da883620013ff565b925082820390508181111562001dc35762001dc26200163a565b5b92915050565b7f4e487b7100000000000000000000000000000000000000000000000000000000600052603260045260246000fd5b7f4e487b7100000000000000000000000000000000000000000000000000000000600052603160045260246000fd5b7f4552433732313a2061646472657373207a65726f206973206e6f74206120766160008201527f6c6964206f776e65720000000000000000000000000000000000000000000000602082015250565b600062001e856029836200183f565b915062001e928262001e27565b604082019050919050565b6000602082019050818103600083015262001eb88162001e76565b9050919050565b6149df8062001ecf6000396000f3fe6080604052600436106101ee5760003560e01c80636352211e1161010d578063b005866c116100a0578063d5abeb011161006f578063d5abeb01146106db578063e985e9c514610706578063f0293fd314610743578063f2fde38b14610780578063fa22e8ed146107a9576101ee565b8063b005866c1461060d578063b14ec1011461064a578063b88d4fde14610675578063c87b56dd1461069e576101ee565b80638456cb59116100dc5780638456cb59146105775780638da5cb5b1461058e57806395d89b41146105b9578063a22cb465146105e4576101ee565b80636352211e146104bb5780636817c76c146104f857806370a0823114610523578063715018a614610560576101ee565b8063294006a41161018557806342842e0e1161015457806342842e0e146103ff578063453c2310146104285780634f6ccce7146104535780635c975abb14610490576101ee565b8063294006a4146103695780632f745c59146103945780633ccfd60b146103d15780633f4ba83a146103e8576101ee565b8063095ea7b3116101c1578063095ea7b3146102c357806318160ddd146102ec5780632373ac221461031757806323b872dd14610340576101ee565b80630116bc2d146101f357806301ffc9a71461021e57806306fdde031461025b578063081812fc14610286575b600080fd5b3480156101ff57600080fd5b506102086107b3565b6040516102159190612e22565b60405180910390f35b34801561022a57600080fd5b5061024560048036038101906102409190612ea9565b6107c6565b6040516102529190612e22565b60405180910390f35b34801561026757600080fd5b506102706107d8565b60405161027d9190612f66565b60405180910390f35b34801561029257600080fd5b506102ad60048036038101906102a89190612fbe565b61086a565b6040516102ba919061302c565b60405180910390f35b3480156102cf57600080fd5b506102ea60048036038101906102e59190613073565b6108b0565b005b3480156102f857600080fd5b506103016109c7565b60405161030e91906130c2565b60405180910390f35b34801561032357600080fd5b5061033e60048036038101906103399190613109565b6109d4565b005b34801561034c57600080fd5b5061036760048036038101906103629190613136565b6109f9565b005b34801561037557600080fd5b5061037e610a59565b60405161038b9190613329565b60405180910390f35b3480156103a057600080fd5b506103bb60048036038101906103b69190613073565b610bbe565b6040516103c891906130c2565b60405180910390f35b3480156103dd57600080fd5b506103e6610c63565b005b3480156103f457600080fd5b506103fd610d3c565b005b34801561040b57600080fd5b5061042660048036038101906104219190613136565b610d4e565b005b34801561043457600080fd5b5061043d610d6e565b60405161044a91906130c2565b60405180910390f35b34801561045f57600080fd5b5061047a60048036038101906104759190612fbe565b610d74565b60405161048791906130c2565b60405180910390f35b34801561049c57600080fd5b506104a5610de5565b6040516104b29190612e22565b60405180910390f35b3480156104c757600080fd5b506104e260048036038101906104dd9190612fbe565b610dfc565b6040516104ef919061302c565b60405180910390f35b34801561050457600080fd5b5061050d610e82565b60405161051a91906130c2565b60405180910390f35b34801561052f57600080fd5b5061054a6004803603810190610545919061334b565b610e88565b60405161055791906130c2565b60405180910390f35b34801561056c57600080fd5b50610575610f3f565b005b34801561058357600080fd5b5061058c610f53565b005b34801561059a57600080fd5b506105a3610f65565b6040516105b0919061302c565b60405180910390f35b3480156105c557600080fd5b506105ce610f8f565b6040516105db9190612f66565b60405180910390f35b3480156105f057600080fd5b5061060b60048036038101906106069190613378565b611021565b005b34801561061957600080fd5b50610634600480360381019061062f9190612fbe565b611037565b604051610641919061342e565b60405180910390f35b34801561065657600080fd5b5061065f611179565b60405161066c919061302c565b60405180910390f35b34801561068157600080fd5b5061069c60048036038101906106979190613585565b61119f565b005b3480156106aa57600080fd5b506106c560048036038101906106c09190612fbe565b611201565b6040516106d29190612f66565b60405180910390f35b3480156106e757600080fd5b506106f0611289565b6040516106fd91906130c2565b60405180910390f35b34801561071257600080fd5b5061072d60048036038101906107289190613608565b61128f565b60405161073a9190612e22565b60405180910390f35b34801561074f57600080fd5b5061076a6004803603810190610765919061334b565b611323565b60405161077791906130c2565b60405180910390f35b34801561078c57600080fd5b506107a760048036038101906107a2919061334b565b61133b565b005b6107b16113be565b005b600f60009054906101000a900460ff1681565b60006107d182611957565b9050919050565b6060600080546107e790613677565b80601f016020809104026020016040519081016040528092919081815260200182805461081390613677565b80156108605780601f1061083557610100808354040283529160200191610860565b820191906000526020600020905b81548152906001019060200180831161084357829003601f168201915b5050505050905090565b6000610875826119d1565b6004600083815260200190815260200160002060009054906101000a900473ffffffffffffffffffffffffffffffffffffffff169050919050565b60006108bb82610dfc565b90508073ffffffffffffffffffffffffffffffffffffffff168373ffffffffffffffffffffffffffffffffffffffff160361092b576040517f08c379a00000000000000000000000000000000000000000000000000000000081526004016109229061371a565b60405180910390fd5b8073ffffffffffffffffffffffffffffffffffffffff1661094a611a1c565b73ffffffffffffffffffffffffffffffffffffffff161480610979575061097881610973611a1c565b61128f565b5b6109b8576040517f08c379a00000000000000000000000000000000000000000000000000000000081526004016109af906137ac565b60405180910390fd5b6109c28383611a24565b505050565b6000600880549050905090565b6109dc611add565b80600f60006101000a81548160ff02191690831515021790555050565b610a0a610a04611a1c565b82611b5b565b610a49576040517f08c379a0000000000000000000000000000000000000000000000000000000008152600401610a409061383e565b60405180910390fd5b610a54838383611bf0565b505050565b60606011805480602002602001604051908101604052809291908181526020016000905b82821015610bb557838290600052602060002090600502016040518060a0016040529081600082015481526020016001820160009054906101000a900473ffffffffffffffffffffffffffffffffffffffff1673ffffffffffffffffffffffffffffffffffffffff1673ffffffffffffffffffffffffffffffffffffffff16815260200160028201548152602001600382018054610b1a90613677565b80601f0160208091040260200160405190810160405280929190818152602001828054610b4690613677565b8015610b935780601f10610b6857610100808354040283529160200191610b93565b820191906000526020600020905b815481529060010190602001808311610b7657829003601f168201915b5050505050815260200160048201548152505081526020019060010190610a7d565b50505050905090565b6000610bc983610e88565b8210610c0a576040517f08c379a0000000000000000000000000000000000000000000000000000000008152600401610c01906138d0565b60405180910390fd5b600660008473ffffffffffffffffffffffffffffffffffffffff1673ffffffffffffffffffffffffffffffffffffffff168152602001908152602001600020600083815260200190815260200160002054905092915050565b610c6b611add565b6000600f60019054906101000a900473ffffffffffffffffffffffffffffffffffffffff1673ffffffffffffffffffffffffffffffffffffffff1647604051610cb390613921565b60006040518083038185875af1925050503d8060008114610cf0576040519150601f19603f3d011682016040523d82523d6000602084013e610cf5565b606091505b5050905080610d39576040517f08c379a0000000000000000000000000000000000000000000000000000000008152600401610d3090613982565b60405180910390fd5b50565b610d44611add565b610d4c611ee9565b565b610d698383836040518060200160405280600081525061119f565b505050565b600e5481565b6000610d7e6109c7565b8210610dbf576040517f08c379a0000000000000000000000000000000000000000000000000000000008152600401610db690613a14565b60405180910390fd5b60088281548110610dd357610dd2613a34565b5b90600052602060002001549050919050565b6000600a60009054906101000a900460ff16905090565b600080610e0883611f4c565b9050600073ffffffffffffffffffffffffffffffffffffffff168173ffffffffffffffffffffffffffffffffffffffff1603610e79576040517f08c379a0000000000000000000000000000000000000000000000000000000008152600401610e7090613aaf565b60405180910390fd5b80915050919050565b600d5481565b60008073ffffffffffffffffffffffffffffffffffffffff168273ffffffffffffffffffffffffffffffffffffffff1603610ef8576040517f08c379a0000000000000000000000000000000000000000000000000000000008152600401610eef90613b41565b60405180910390fd5b600360008373ffffffffffffffffffffffffffffffffffffffff1673ffffffffffffffffffffffffffffffffffffffff168152602001908152602001600020549050919050565b610f47611add565b610f516000611f89565b565b610f5b611add565b610f6361204f565b565b6000600a60019054906101000a900473ffffffffffffffffffffffffffffffffffffffff16905090565b606060018054610f9e90613677565b80601f0160208091040260200160405190810160405280929190818152602001828054610fca90613677565b80156110175780601f10610fec57610100808354040283529160200191611017565b820191906000526020600020905b815481529060010190602001808311610ffa57829003601f168201915b5050505050905090565b61103361102c611a1c565b83836120b2565b5050565b61103f612dc2565b6011828154811061105357611052613a34565b5b90600052602060002090600502016040518060a0016040529081600082015481526020016001820160009054906101000a900473ffffffffffffffffffffffffffffffffffffffff1673ffffffffffffffffffffffffffffffffffffffff1673ffffffffffffffffffffffffffffffffffffffff168152602001600282015481526020016003820180546110e690613677565b80601f016020809104026020016040519081016040528092919081815260200182805461111290613677565b801561115f5780601f106111345761010080835404028352916020019161115f565b820191906000526020600020905b81548152906001019060200180831161114257829003601f168201915b505050505081526020016004820154815250509050919050565b600f60019054906101000a900473ffffffffffffffffffffffffffffffffffffffff1681565b6111b06111aa611a1c565b83611b5b565b6111ef576040517f08c379a00000000000000000000000000000000000000000000000000000000081526004016111e69061383e565b60405180910390fd5b6111fb8484848461221e565b50505050565b606061120c8261227a565b61124b576040517f08c379a000000000000000000000000000000000000000000000000000000000815260040161124290613bd3565b60405180910390fd5b60006112556122bb565b905080611261846115af565b604051602001611272929190613c7b565b604051602081830303815290604052915050919050565b600c5481565b6000600560008473ffffffffffffffffffffffffffffffffffffffff1673ffffffffffffffffffffffffffffffffffffffff16815260200190815260200160002060008373ffffffffffffffffffffffffffffffffffffffff1673ffffffffffffffffffffffffffffffffffffffff16815260200190815260200160002060009054906101000a900460ff16905092915050565b60106020528060005260406000206000915090505481565b611343611add565b600073ffffffffffffffffffffffffffffffffffffffff168173ffffffffffffffffffffffffffffffffffffffff16036113b2576040517f08c379a00000000000000000000000000000000000000000000000000000000081526004016113a990613d1c565b60405180910390fd5b6113bb81611f89565b50565b600f60009054906101000a900460ff1661140d576040517f08c379a000000000000000000000000000000000000000000000000000000000815260040161140490613d88565b60405180910390fd5b600d543414611451576040517f08c379a000000000000000000000000000000000000000000000000000000000815260040161144890613df4565b60405180910390fd5b600c5461145c6109c7565b1061149c576040517f08c379a000000000000000000000000000000000000000000000000000000000815260040161149390613e60565b60405180910390fd5b600e546001601060003373ffffffffffffffffffffffffffffffffffffffff1673ffffffffffffffffffffffffffffffffffffffff168152602001908152602001600020546114eb9190613eaf565b111561152c576040517f08c379a000000000000000000000000000000000000000000000000000000000815260040161152390613f2f565b60405180910390fd5b601060003373ffffffffffffffffffffffffffffffffffffffff1673ffffffffffffffffffffffffffffffffffffffff168152602001908152602001600020600081548092919061157c90613f4f565b91905055506115896122db565b565b600081600001549050919050565b6001816000016000828254019250508190555050565b6060600060016115be8461167d565b01905060008167ffffffffffffffff8111156115dd576115dc61345a565b5b6040519080825280601f01601f19166020018201604052801561160f5781602001600182028036833780820191505090505b509050600082602001820190505b600115611672578080600190039150507f3031323334353637383961626364656600000000000000000000000000000000600a86061a8153600a858161166657611665613f97565b5b0494506000850361161d575b819350505050919050565b600080600090507a184f03e93ff9f4daa797ed6e38ed64bf6a1f01000000000000000083106116db577a184f03e93ff9f4daa797ed6e38ed64bf6a1f01000000000000000083816116d1576116d0613f97565b5b0492506040810190505b6d04ee2d6d415b85acef81000000008310611718576d04ee2d6d415b85acef8100000000838161170e5761170d613f97565b5b0492506020810190505b662386f26fc10000831061174757662386f26fc10000838161173d5761173c613f97565b5b0492506010810190505b6305f5e1008310611770576305f5e100838161176657611765613f97565b5b0492506008810190505b612710831061179557612710838161178b5761178a613f97565b5b0492506004810190505b606483106117b857606483816117ae576117ad613f97565b5b0492506002810190505b600a83106117c7576001810190505b80915050919050565b6000808273ffffffffffffffffffffffffffffffffffffffff163b119050919050565b6117ff84848484611951565b6001811115611843576040517f08c379a000000000000000000000000000000000000000000000000000000000815260040161183a90614038565b60405180910390fd5b6000829050600073ffffffffffffffffffffffffffffffffffffffff168573ffffffffffffffffffffffffffffffffffffffff160361188a57611885816124a0565b6118c9565b8373ffffffffffffffffffffffffffffffffffffffff168573ffffffffffffffffffffffffffffffffffffffff16146118c8576118c785826124e9565b5b5b600073ffffffffffffffffffffffffffffffffffffffff168473ffffffffffffffffffffffffffffffffffffffff160361190b5761190681612656565b61194a565b8473ffffffffffffffffffffffffffffffffffffffff168473ffffffffffffffffffffffffffffffffffffffff1614611949576119488482612727565b5b5b5050505050565b50505050565b60007f780e9d63000000000000000000000000000000000000000000000000000000007bffffffffffffffffffffffffffffffffffffffffffffffffffffffff1916827bffffffffffffffffffffffffffffffffffffffffffffffffffffffff191614806119ca57506119c9826127a6565b5b9050919050565b6119da8161227a565b611a19576040517f08c379a0000000000000000000000000000000000000000000000000000000008152600401611a1090613aaf565b60405180910390fd5b50565b600033905090565b816004600083815260200190815260200160002060006101000a81548173ffffffffffffffffffffffffffffffffffffffff021916908373ffffffffffffffffffffffffffffffffffffffff160217905550808273ffffffffffffffffffffffffffffffffffffffff16611a9783610dfc565b73ffffffffffffffffffffffffffffffffffffffff167f8c5be1e5ebec7d5bd14f71427d1e84f3dd0314c0f7b2291e5b200ac8c7c3b92560405160405180910390a45050565b611ae5611a1c565b73ffffffffffffffffffffffffffffffffffffffff16611b03610f65565b73ffffffffffffffffffffffffffffffffffffffff1614611b59576040517f08c379a0000000000000000000000000000000000000000000000000000000008152600401611b50906140a4565b60405180910390fd5b565b600080611b6783610dfc565b90508073ffffffffffffffffffffffffffffffffffffffff168473ffffffffffffffffffffffffffffffffffffffff161480611ba95750611ba8818561128f565b5b80611be757508373ffffffffffffffffffffffffffffffffffffffff16611bcf8461086a565b73ffffffffffffffffffffffffffffffffffffffff16145b91505092915050565b8273ffffffffffffffffffffffffffffffffffffffff16611c1082610dfc565b73ffffffffffffffffffffffffffffffffffffffff1614611c66576040517f08c379a0000000000000000000000000000000000000000000000000000000008152600401611c5d90614136565b60405180910390fd5b600073ffffffffffffffffffffffffffffffffffffffff168273ffffffffffffffffffffffffffffffffffffffff1603611cd5576040517f08c379a0000000000000000000000000000000000000000000000000000000008152600401611ccc906141c8565b60405180910390fd5b611ce28383836001612888565b8273ffffffffffffffffffffffffffffffffffffffff16611d0282610dfc565b73ffffffffffffffffffffffffffffffffffffffff1614611d58576040517f08c379a0000000000000000000000000000000000000000000000000000000008152600401611d4f90614136565b60405180910390fd5b6004600082815260200190815260200160002060006101000a81549073ffffffffffffffffffffffffffffffffffffffff02191690556001600360008573ffffffffffffffffffffffffffffffffffffffff1673ffffffffffffffffffffffffffffffffffffffff168152602001908152602001600020600082825403925050819055506001600360008473ffffffffffffffffffffffffffffffffffffffff1673ffffffffffffffffffffffffffffffffffffffff16815260200190815260200160002060008282540192505081905550816002600083815260200190815260200160002060006101000a81548173ffffffffffffffffffffffffffffffffffffffff021916908373ffffffffffffffffffffffffffffffffffffffff160217905550808273ffffffffffffffffffffffffffffffffffffffff168473ffffffffffffffffffffffffffffffffffffffff167fddf252ad1be2c89b69c2b068fc378daa952ba7f163c4a11628f55a4df523b3ef60405160405180910390a4611ee483838360016128a2565b505050565b611ef16128a8565b6000600a60006101000a81548160ff0219169083151502179055507f5db9ee0a495bf2e6ff9c91a7834c1ba4fdd244a5e8aa4e537bd38aeae4b073aa611f35611a1c565b604051611f42919061302c565b60405180910390a1565b60006002600083815260200190815260200160002060009054906101000a900473ffffffffffffffffffffffffffffffffffffffff169050919050565b6000600a60019054906101000a900473ffffffffffffffffffffffffffffffffffffffff16905081600a60016101000a81548173ffffffffffffffffffffffffffffffffffffffff021916908373ffffffffffffffffffffffffffffffffffffffff1602179055508173ffffffffffffffffffffffffffffffffffffffff168173ffffffffffffffffffffffffffffffffffffffff167f8be0079c531659141344cd1fd0a4f28419497f9722a3daafe3b4186f6b6457e060405160405180910390a35050565b6120576128f1565b6001600a60006101000a81548160ff0219169083151502179055507f62e78cea01bee320cd4e420270b5ea74000d11b0c9f74754ebdbfc544b05a25861209b611a1c565b6040516120a8919061302c565b60405180910390a1565b8173ffffffffffffffffffffffffffffffffffffffff168373ffffffffffffffffffffffffffffffffffffffff1603612120576040517f08c379a000000000000000000000000000000000000000000000000000000000815260040161211790614234565b60405180910390fd5b80600560008573ffffffffffffffffffffffffffffffffffffffff1673ffffffffffffffffffffffffffffffffffffffff16815260200190815260200160002060008473ffffffffffffffffffffffffffffffffffffffff1673ffffffffffffffffffffffffffffffffffffffff16815260200190815260200160002060006101000a81548160ff0219169083151502179055508173ffffffffffffffffffffffffffffffffffffffff168373ffffffffffffffffffffffffffffffffffffffff167f17307eab39ab6107e8899845ad3d59bd9653f200f220920489ca2b5937696c31836040516122119190612e22565b60405180910390a3505050565b612229848484611bf0565b6122358484848461293b565b612274576040517f08c379a000000000000000000000000000000000000000000000000000000000815260040161226b906142c6565b60405180910390fd5b50505050565b60008073ffffffffffffffffffffffffffffffffffffffff1661229c83611f4c565b73ffffffffffffffffffffffffffffffffffffffff1614159050919050565b606060405180608001604052806043815260200161496760439139905090565b60006122e7600b61158b565b90506122f3600b611599565b6122fd3382612ac2565b600060405180608001604052806043815260200161492460439139905060116040518060a001604052808481526020013373ffffffffffffffffffffffffffffffffffffffff168152602001600d5481526020018361235b866115af565b60405160200161236c929190614332565b60405160208183030381529060405281526020014281525090806001815401808255809150506001900390600052602060002090600502016000909190919091506000820151816000015560208201518160010160006101000a81548173ffffffffffffffffffffffffffffffffffffffff021916908373ffffffffffffffffffffffffffffffffffffffff16021790555060408201518160020155606082015181600301908161241d919061450d565b5060808201518160040155505061243382611201565b60405161244091906145df565b60405180910390203373ffffffffffffffffffffffffffffffffffffffff167f5541a5569f98981b61e7ec19b78cd051b4a1755a66a9729e08c22f177ac9eb0184600d5442604051612494939291906145f6565b60405180910390a35050565b6008805490506009600083815260200190815260200160002081905550600881908060018154018082558091505060019003906000526020600020016000909190919091505550565b600060016124f684610e88565b612500919061462d565b90506000600760008481526020019081526020016000205490508181146125e5576000600660008673ffffffffffffffffffffffffffffffffffffffff1673ffffffffffffffffffffffffffffffffffffffff168152602001908152602001600020600084815260200190815260200160002054905080600660008773ffffffffffffffffffffffffffffffffffffffff1673ffffffffffffffffffffffffffffffffffffffff168152602001908152602001600020600084815260200190815260200160002081905550816007600083815260200190815260200160002081905550505b6007600084815260200190815260200160002060009055600660008573ffffffffffffffffffffffffffffffffffffffff1673ffffffffffffffffffffffffffffffffffffffff16815260200190815260200160002060008381526020019081526020016000206000905550505050565b6000600160088054905061266a919061462d565b905060006009600084815260200190815260200160002054905060006008838154811061269a57612699613a34565b5b9060005260206000200154905080600883815481106126bc576126bb613a34565b5b90600052602060002001819055508160096000838152602001908152602001600020819055506009600085815260200190815260200160002060009055600880548061270b5761270a614661565b5b6001900381819060005260206000200160009055905550505050565b600061273283610e88565b905081600660008573ffffffffffffffffffffffffffffffffffffffff1673ffffffffffffffffffffffffffffffffffffffff168152602001908152602001600020600083815260200190815260200160002081905550806007600084815260200190815260200160002081905550505050565b60007f80ac58cd000000000000000000000000000000000000000000000000000000007bffffffffffffffffffffffffffffffffffffffffffffffffffffffff1916827bffffffffffffffffffffffffffffffffffffffffffffffffffffffff1916148061287157507f5b5e139f000000000000000000000000000000000000000000000000000000007bffffffffffffffffffffffffffffffffffffffffffffffffffffffff1916827bffffffffffffffffffffffffffffffffffffffffffffffffffffffff1916145b80612881575061288082612ae0565b5b9050919050565b6128906128f1565b61289c848484846117f3565b50505050565b50505050565b6128b0610de5565b6128ef576040517f08c379a00000000000000000000000000000000000000000000000000000000081526004016128e6906146dc565b60405180910390fd5b565b6128f9610de5565b15612939576040517f08c379a000000000000000000000000000000000000000000000000000000000815260040161293090614748565b60405180910390fd5b565b600061295c8473ffffffffffffffffffffffffffffffffffffffff166117d0565b15612ab5578373ffffffffffffffffffffffffffffffffffffffff1663150b7a02612985611a1c565b8786866040518563ffffffff1660e01b81526004016129a794939291906147bd565b6020604051808303816000875af19250505080156129e357506040513d601f19601f820116820180604052508101906129e0919061481e565b60015b612a65573d8060008114612a13576040519150601f19603f3d011682016040523d82523d6000602084013e612a18565b606091505b506000815103612a5d576040517f08c379a0000000000000000000000000000000000000000000000000000000008152600401612a54906142c6565b60405180910390fd5b805181602001fd5b63150b7a0260e01b7bffffffffffffffffffffffffffffffffffffffffffffffffffffffff1916817bffffffffffffffffffffffffffffffffffffffffffffffffffffffff191614915050612aba565b600190505b949350505050565b612adc828260405180602001604052806000815250612b4a565b5050565b60007f01ffc9a7000000000000000000000000000000000000000000000000000000007bffffffffffffffffffffffffffffffffffffffffffffffffffffffff1916827bffffffffffffffffffffffffffffffffffffffffffffffffffffffff1916149050919050565b612b548383612ba5565b612b61600084848461293b565b612ba0576040517f08c379a0000000000000000000000000000000000000000000000000000000008152600401612b97906142c6565b60405180910390fd5b505050565b600073ffffffffffffffffffffffffffffffffffffffff168273ffffffffffffffffffffffffffffffffffffffff1603612c14576040517f08c379a0000000000000000000000000000000000000000000000000000000008152600401612c0b90614897565b60405180910390fd5b612c1d8161227a565b15612c5d576040517f08c379a0000000000000000000000000000000000000000000000000000000008152600401612c5490614903565b60405180910390fd5b612c6b600083836001612888565b612c748161227a565b15612cb4576040517f08c379a0000000000000000000000000000000000000000000000000000000008152600401612cab90614903565b60405180910390fd5b6001600360008473ffffffffffffffffffffffffffffffffffffffff1673ffffffffffffffffffffffffffffffffffffffff16815260200190815260200160002060008282540192505081905550816002600083815260200190815260200160002060006101000a81548173ffffffffffffffffffffffffffffffffffffffff021916908373ffffffffffffffffffffffffffffffffffffffff160217905550808273ffffffffffffffffffffffffffffffffffffffff16600073ffffffffffffffffffffffffffffffffffffffff167fddf252ad1be2c89b69c2b068fc378daa952ba7f163c4a11628f55a4df523b3ef60405160405180910390a4612dbe6000838360016128a2565b5050565b6040518060a0016040528060008152602001600073ffffffffffffffffffffffffffffffffffffffff1681526020016000815260200160608152602001600081525090565b60008115159050919050565b612e1c81612e07565b82525050565b6000602082019050612e376000830184612e13565b92915050565b6000604051905090565b600080fd5b600080fd5b60007fffffffff0000000000000000000000000000000000000000000000000000000082169050919050565b612e8681612e51565b8114612e9157600080fd5b50565b600081359050612ea381612e7d565b92915050565b600060208284031215612ebf57612ebe612e47565b5b6000612ecd84828501612e94565b91505092915050565b600081519050919050565b600082825260208201905092915050565b60005b83811015612f10578082015181840152602081019050612ef5565b60008484015250505050565b6000601f19601f8301169050919050565b6000612f3882612ed6565b612f428185612ee1565b9350612f52818560208601612ef2565b612f5b81612f1c565b840191505092915050565b60006020820190508181036000830152612f808184612f2d565b905092915050565b6000819050919050565b612f9b81612f88565b8114612fa657600080fd5b50565b600081359050612fb881612f92565b92915050565b600060208284031215612fd457612fd3612e47565b5b6000612fe284828501612fa9565b91505092915050565b600073ffffffffffffffffffffffffffffffffffffffff82169050919050565b600061301682612feb565b9050919050565b6130268161300b565b82525050565b6000602082019050613041600083018461301d565b92915050565b6130508161300b565b811461305b57600080fd5b50565b60008135905061306d81613047565b92915050565b6000806040838503121561308a57613089612e47565b5b60006130988582860161305e565b92505060206130a985828601612fa9565b9150509250929050565b6130bc81612f88565b82525050565b60006020820190506130d760008301846130b3565b92915050565b6130e681612e07565b81146130f157600080fd5b50565b600081359050613103816130dd565b92915050565b60006020828403121561311f5761311e612e47565b5b600061312d848285016130f4565b91505092915050565b60008060006060848603121561314f5761314e612e47565b5b600061315d8682870161305e565b935050602061316e8682870161305e565b925050604061317f86828701612fa9565b9150509250925092565b600081519050919050565b600082825260208201905092915050565b6000819050602082019050919050565b6131be81612f88565b82525050565b6131cd8161300b565b82525050565b600082825260208201905092915050565b60006131ef82612ed6565b6131f981856131d3565b9350613209818560208601612ef2565b61321281612f1c565b840191505092915050565b600060a08301600083015161323560008601826131b5565b50602083015161324860208601826131c4565b50604083015161325b60408601826131b5565b506060830151848203606086015261327382826131e4565b915050608083015161328860808601826131b5565b508091505092915050565b600061329f838361321d565b905092915050565b6000602082019050919050565b60006132bf82613189565b6132c98185613194565b9350836020820285016132db856131a5565b8060005b8581101561331757848403895281516132f88582613293565b9450613303836132a7565b925060208a019950506001810190506132df565b50829750879550505050505092915050565b6000602082019050818103600083015261334381846132b4565b905092915050565b60006020828403121561336157613360612e47565b5b600061336f8482850161305e565b91505092915050565b6000806040838503121561338f5761338e612e47565b5b600061339d8582860161305e565b92505060206133ae858286016130f4565b9150509250929050565b600060a0830160008301516133d060008601826131b5565b5060208301516133e360208601826131c4565b5060408301516133f660408601826131b5565b506060830151848203606086015261340e82826131e4565b915050608083015161342360808601826131b5565b508091505092915050565b6000602082019050818103600083015261344881846133b8565b905092915050565b600080fd5b600080fd5b7f4e487b7100000000000000000000000000000000000000000000000000000000600052604160045260246000fd5b61349282612f1c565b810181811067ffffffffffffffff821117156134b1576134b061345a565b5b80604052505050565b60006134c4612e3d565b90506134d08282613489565b919050565b600067ffffffffffffffff8211156134f0576134ef61345a565b5b6134f982612f1c565b9050602081019050919050565b82818337600083830152505050565b6000613528613523846134d5565b6134ba565b90508281526020810184848401111561354457613543613455565b5b61354f848285613506565b509392505050565b600082601f83011261356c5761356b613450565b5b813561357c848260208601613515565b91505092915050565b6000806000806080858703121561359f5761359e612e47565b5b60006135ad8782880161305e565b94505060206135be8782880161305e565b93505060406135cf87828801612fa9565b925050606085013567ffffffffffffffff8111156135f0576135ef612e4c565b5b6135fc87828801613557565b91505092959194509250565b6000806040838503121561361f5761361e612e47565b5b600061362d8582860161305e565b925050602061363e8582860161305e565b9150509250929050565b7f4e487b7100000000000000000000000000000000000000000000000000000000600052602260045260246000fd5b6000600282049050600182168061368f57607f821691505b6020821081036136a2576136a1613648565b5b50919050565b7f4552433732313a20617070726f76616c20746f2063757272656e74206f776e6560008201527f7200000000000000000000000000000000000000000000000000000000000000602082015250565b6000613704602183612ee1565b915061370f826136a8565b604082019050919050565b60006020820190508181036000830152613733816136f7565b9050919050565b7f4552433732313a20617070726f76652063616c6c6572206973206e6f7420746f60008201527f6b656e206f776e6572206f7220617070726f76656420666f7220616c6c000000602082015250565b6000613796603d83612ee1565b91506137a18261373a565b604082019050919050565b600060208201905081810360008301526137c581613789565b9050919050565b7f4552433732313a2063616c6c6572206973206e6f7420746f6b656e206f776e6560008201527f72206f7220617070726f76656400000000000000000000000000000000000000602082015250565b6000613828602d83612ee1565b9150613833826137cc565b604082019050919050565b600060208201905081810360008301526138578161381b565b9050919050565b7f455243373231456e756d657261626c653a206f776e657220696e646578206f7560008201527f74206f6620626f756e6473000000000000000000000000000000000000000000602082015250565b60006138ba602b83612ee1565b91506138c58261385e565b604082019050919050565b600060208201905081810360008301526138e9816138ad565b9050919050565b600081905092915050565b50565b600061390b6000836138f0565b9150613916826138fb565b600082019050919050565b600061392c826138fe565b9150819050919050565b7f7769746864726177206661696c65640000000000000000000000000000000000600082015250565b600061396c600f83612ee1565b915061397782613936565b602082019050919050565b6000602082019050818103600083015261399b8161395f565b9050919050565b7f455243373231456e756d657261626c653a20676c6f62616c20696e646578206f60008201527f7574206f6620626f756e64730000000000000000000000000000000000000000602082015250565b60006139fe602c83612ee1565b9150613a09826139a2565b604082019050919050565b60006020820190508181036000830152613a2d816139f1565b9050919050565b7f4e487b7100000000000000000000000000000000000000000000000000000000600052603260045260246000fd5b7f4552433732313a20696e76616c696420746f6b656e2049440000000000000000600082015250565b6000613a99601883612ee1565b9150613aa482613a63565b602082019050919050565b60006020820190508181036000830152613ac881613a8c565b9050919050565b7f4552433732313a2061646472657373207a65726f206973206e6f74206120766160008201527f6c6964206f776e65720000000000000000000000000000000000000000000000602082015250565b6000613b2b602983612ee1565b9150613b3682613acf565b604082019050919050565b60006020820190508181036000830152613b5a81613b1e565b9050919050565b7f4d657461646174613a2055524920717565727920666f72204e6f6e657869737460008201527f656e7420746f6b656e0000000000000000000000000000000000000000000000602082015250565b6000613bbd602983612ee1565b9150613bc882613b61565b604082019050919050565b60006020820190508181036000830152613bec81613bb0565b9050919050565b600081905092915050565b6000613c0982612ed6565b613c138185613bf3565b9350613c23818560208601612ef2565b80840191505092915050565b7f2e6a736f6e000000000000000000000000000000000000000000000000000000600082015250565b6000613c65600583613bf3565b9150613c7082613c2f565b600582019050919050565b6000613c878285613bfe565b9150613c938284613bfe565b9150613c9e82613c58565b91508190509392505050565b7f4f776e61626c653a206e6577206f776e657220697320746865207a65726f206160008201527f6464726573730000000000000000000000000000000000000000000000000000602082015250565b6000613d06602683612ee1565b9150613d1182613caa565b604082019050919050565b60006020820190508181036000830152613d3581613cf9565b9050919050565b7f4d696e74696e67206e6f7420656e61626c656421000000000000000000000000600082015250565b6000613d72601483612ee1565b9150613d7d82613d3c565b602082019050919050565b60006020820190508181036000830152613da181613d65565b9050919050565b7f496e73756666696369656e742046756e64732100000000000000000000000000600082015250565b6000613dde601383612ee1565b9150613de982613da8565b602082019050919050565b60006020820190508181036000830152613e0d81613dd1565b9050919050565b7f536f6c64204f7574210000000000000000000000000000000000000000000000600082015250565b6000613e4a600983612ee1565b9150613e5582613e14565b602082019050919050565b60006020820190508181036000830152613e7981613e3d565b9050919050565b7f4e487b7100000000000000000000000000000000000000000000000000000000600052601160045260246000fd5b6000613eba82612f88565b9150613ec583612f88565b9250828201905080821115613edd57613edc613e80565b5b92915050565b7f657863656564206d61782077616c6c6574206d696e7400000000000000000000600082015250565b6000613f19601683612ee1565b9150613f2482613ee3565b602082019050919050565b60006020820190508181036000830152613f4881613f0c565b9050919050565b6000613f5a82612f88565b91507fffffffffffffffffffffffffffffffffffffffffffffffffffffffffffffffff8203613f8c57613f8b613e80565b5b600182019050919050565b7f4e487b7100000000000000000000000000000000000000000000000000000000600052601260045260246000fd5b7f455243373231456e756d657261626c653a20636f6e736563757469766520747260008201527f616e7366657273206e6f7420737570706f727465640000000000000000000000602082015250565b6000614022603583612ee1565b915061402d82613fc6565b604082019050919050565b6000602082019050818103600083015261405181614015565b9050919050565b7f4f776e61626c653a2063616c6c6572206973206e6f7420746865206f776e6572600082015250565b600061408e602083612ee1565b915061409982614058565b602082019050919050565b600060208201905081810360008301526140bd81614081565b9050919050565b7f4552433732313a207472616e736665722066726f6d20696e636f72726563742060008201527f6f776e6572000000000000000000000000000000000000000000000000000000602082015250565b6000614120602583612ee1565b915061412b826140c4565b604082019050919050565b6000602082019050818103600083015261414f81614113565b9050919050565b7f4552433732313a207472616e7366657220746f20746865207a65726f2061646460008201527f7265737300000000000000000000000000000000000000000000000000000000602082015250565b60006141b2602483612ee1565b91506141bd82614156565b604082019050919050565b600060208201905081810360008301526141e1816141a5565b9050919050565b7f4552433732313a20617070726f766520746f2063616c6c657200000000000000600082015250565b600061421e601983612ee1565b9150614229826141e8565b602082019050919050565b6000602082019050818103600083015261424d81614211565b9050919050565b7f4552433732313a207472616e7366657220746f206e6f6e20455243373231526560008201527f63656976657220696d706c656d656e7465720000000000000000000000000000602082015250565b60006142b0603283612ee1565b91506142bb82614254565b604082019050919050565b600060208201905081810360008301526142df816142a3565b9050919050565b7f2e706e6700000000000000000000000000000000000000000000000000000000600082015250565b600061431c600483613bf3565b9150614327826142e6565b600482019050919050565b600061433e8285613bfe565b915061434a8284613bfe565b91506143558261430f565b91508190509392505050565b60008190508160005260206000209050919050565b60006020601f8301049050919050565b600082821b905092915050565b6000600883026143c37fffffffffffffffffffffffffffffffffffffffffffffffffffffffffffffffff82614386565b6143cd8683614386565b95508019841693508086168417925050509392505050565b6000819050919050565b600061440a61440561440084612f88565b6143e5565b612f88565b9050919050565b6000819050919050565b614424836143ef565b61443861443082614411565b848454614393565b825550505050565b600090565b61444d614440565b61445881848461441b565b505050565b5b8181101561447c57614471600082614445565b60018101905061445e565b5050565b601f8211156144c15761449281614361565b61449b84614376565b810160208510156144aa578190505b6144be6144b685614376565b83018261445d565b50505b505050565b600082821c905092915050565b60006144e4600019846008026144c6565b1980831691505092915050565b60006144fd83836144d3565b9150826002028217905092915050565b61451682612ed6565b67ffffffffffffffff81111561452f5761452e61345a565b5b6145398254613677565b614544828285614480565b600060209050601f8311600181146145775760008415614565578287015190505b61456f85826144f1565b8655506145d7565b601f19841661458586614361565b60005b828110156145ad57848901518255600182019150602085019450602081019050614588565b868310156145ca57848901516145c6601f8916826144d3565b8355505b6001600288020188555050505b505050505050565b60006145eb8284613bfe565b915081905092915050565b600060608201905061460b60008301866130b3565b61461860208301856130b3565b61462560408301846130b3565b949350505050565b600061463882612f88565b915061464383612f88565b925082820390508181111561465b5761465a613e80565b5b92915050565b7f4e487b7100000000000000000000000000000000000000000000000000000000600052603160045260246000fd5b7f5061757361626c653a206e6f7420706175736564000000000000000000000000600082015250565b60006146c6601483612ee1565b91506146d182614690565b602082019050919050565b600060208201905081810360008301526146f5816146b9565b9050919050565b7f5061757361626c653a2070617573656400000000000000000000000000000000600082015250565b6000614732601083612ee1565b915061473d826146fc565b602082019050919050565b6000602082019050818103600083015261476181614725565b9050919050565b600081519050919050565b600082825260208201905092915050565b600061478f82614768565b6147998185614773565b93506147a9818560208601612ef2565b6147b281612f1c565b840191505092915050565b60006080820190506147d2600083018761301d565b6147df602083018661301d565b6147ec60408301856130b3565b81810360608301526147fe8184614784565b905095945050505050565b60008151905061481881612e7d565b92915050565b60006020828403121561483457614833612e47565b5b600061484284828501614809565b91505092915050565b7f4552433732313a206d696e7420746f20746865207a65726f2061646472657373600082015250565b6000614881602083612ee1565b915061488c8261484b565b602082019050919050565b600060208201905081810360008301526148b081614874565b9050919050565b7f4552433732313a20746f6b656e20616c7265616479206d696e74656400000000600082015250565b60006148ed601c83612ee1565b91506148f8826148b7565b602082019050919050565b6000602082019050818103600083015261491c816148e0565b905091905056fe697066733a2f2f6261667962656965337074756a776767723472766879657a65773676706361616762636e786d7a6d6a69646570626e6f326175636b656377616e692f697066733a2f2f626166796265696268666575676a366e73337a6c6832797664377a6b61376b336a616c6765697533336132757635693563686733747971727071652fa26469706673582212209791dd613015f01ea33fe95d908c3498173b95733fb76cc1b572b0aecc8d0f7764736f6c63430008110033697066733a2f2f6261667962656965337074756a776767723472766879657a65773676706361616762636e786d7a6d6a69646570626e6f326175636b656377616e692f697066733a2f2f626166796265696268666575676a366e73337a6c6832797664377a6b61376b336a616c6765697533336132757635693563686733747971727071652f",
  "linkReferences": {},
  "deployedLinkReferences": {}
}